:100000000C9456000C9473000C9473000C947300C1
:100010000C9473000C9473000C9473000C94730094
:100020000C9473000C9473000C9473000C94730084
:100030000C9473000C9473000C9473000C94730074
:100040000C9473000C9473000C9473000C94730064
:100050000C9473000C9473000C9473000C94730054
:100060000C9473000C9473000C9473000C94730044
:100070000C9473000C9473000C9473000C94730034
:100080000C9473000C9473000C9473000C94730024
:100090000C9473000C9473000C9473000C94730014
:1000A0000C9473000C9473000C94730011241FBE05
:1000B000CFEFDAE0DEBFCDBF11E0A0E0B1E0E4E0D9
:1000C000FAE002C005900D92A030B107D9F714E014
:1000D000A0E0B1E001C01D92AE35B107E1F70E948A
:1000E00057020C9400050C940000EF92FF920F93BE
:1000F0001F93CF93DF938C017A01FB01EE0FFF1F5B
:10010000E60FF71FC901880F991F820F931FBC01CB
:10011000AC018E179F070CF4AF0157FD5AC09C012C
:10012000241B350B83E0B2E0A1E01E161F06ACF5E0
:10013000E80159918E01161617069CF5E7014991C1
:100140007E0190E010C047FD2EC081BB81BB81BB0A
:1001500081BB81BB11BA11BA11BA11BA9F5F983035
:1001600099F0550F440F57FFEECF47FD27C081BBD5
:1001700081BB81BB81BB81BBA1BBA1BBA1BBA1BB1F
:1001800011BA9F5F983069F731976217730709F1C9
:10019000615070401E161F065CF250E016161706DE
:1001A0006CF240E0CECF81BB81BB81BB81BB81BB08
:1001B000B1BBB1BBB1BBB1BB11BAD0CF81BB81BBAD
:1001C00081BB81BB81BB81BB81BB81BB81BB11BAC0
:1001D000C5CFDF91CF911F910F91FF90EF900895C0
:1001E0000F931F93CF93DF93EC01262F61E070E014
:1001F00002C0660F771F2A95E2F7882777FD809562
:10020000982F088519859801442737FD4095542F6C
:100210000E94DA049B01AC018C819D81AE81BF817B
:10022000280F391F4A1F5B1F2C833D834E835F833A
:1002300017FD0EC020503040404F504024F01C822B
:100240001D821E821F82DF91CF911F910F91089511
:1002500057FFF9CF80E090E0A0EFB0E08C839D8362
:10026000AE83BF83F0CF0F931F93CF93DF93EC0147
:10027000262F61E070E002C0660F771F2A95E2F733
:10028000882777FD8095982F088519859801442740
:1002900037FD4095542F0E94DA04AB01BC018C81DC
:1002A0009D81AE81BF81480F591F6A1F7B1F4C8300
:1002B0005D836E837F8317FD20C0298180EF90E0EE
:1002C000821B9109AA2797FDA095BA2FDC019927D7
:1002D000882784179507A607B70754F48C839D8356
:1002E000AE83BF8388279927801B910B99878887C6
:1002F000DF91CF911F910F91089577FFF9CF1C8265
:100300001D821E821F8288279927801B910B998747
:100310008887EECFFF920F931F93082F80910001E3
:100320008823B1F010E0FEE0FF2E1F9DF0011124A4
:10033000EF52FC4F228533852115310531F0CF0175
:10034000602FF9010995809100011F5F181768F36C
:100350001F910F91FF9008954F925F926F927F923D
:100360008F929F92AF92BF92CF92DF92EF92FF92C5
:100370000F931F93CF93DF938C01A62ED090000193
:10038000DD2009F478C0BA01882777FD8095982F81
:1003900020E030E041E050E00A2C04C0559547953C
:1003A000379527950A94D2F70E94DA043B018824F6
:1003B00077FC8094982CB80160537D4FEE24BEE00A
:1003C0004B2EA3E05A2EE49CE0011124CF52DC4FC7
:1003D0002C813D814E815F81CA80BB808981859D52
:1003E000C0011124F82E882309F441C0260D371DC1
:1003F000481D591DCA01BB2797FDB095AB2F9C0125
:10040000AD01220F331F441F551F280F391F4A1FEC
:100410005B1FF801E20FF31F8C2D9B2DDC01FA947A
:100420004F2D50E04F5F5F4F4A0F5B1F90818D91C2
:10043000E017F10788F1E617F70770F5282F30E08D
:100440000A2C02C0359527950A94E2F7290F311D31
:100450002F3F310519F010F02FEF30E021936E1788
:100460007F07F1F0A417B50709F7D0900001E394D6
:10047000ED1408F4A8CFDF91CF911F910F91FF9059
:10048000EF90DF90CF90BF90AF909F908F907F9034
:100490006F905F904F90089531966E177F0711F718
:1004A000888180FF02C0F801DDCFFB01DBCF9F9286
:1004B000AF92BF92CF92DF92EF92FF920F931F9372
:1004C000DF93CF93CDB7DEB7CD55D0400FB6F894BC
:1004D000DEBF0FBECDBF1092D8001092DA0010928E
:1004E000E2001092F00028985D986A98729A5198EC
:1004F000599A3F98479A559A219A80B3836080BB56
:100500001FAA44E048AF19AE1AAE90E19BAF1CAEF3
:100510001DAE20E42EAF1FAEFE01E05CFF4F108247
:100520003FEFFE01EF5BFF4F3083FE01EE5BFF4FBD
:1005300010825FE3FE01ED5BFF4F5083FE01EC5B39
:10054000FF4F3083FE01EB5BFF4F108261E9FE013C
:10055000EA5BFF4F6083FE01E95BFF4F3083FE01E2
:10056000E85BFF4F90838FEBFE01E75BFF4F8083DB
:10057000FE01E65BFF4F30838FE7FE01E55BFF4F37
:100580008083FE01E45BFF4F6083FE01E35BFF4F6E
:100590003083FE01E25BFF4F9083FE01E15BFF4F82
:1005A0005083FE01E05BFF4F3083FE01EF5AFF4FA7
:1005B0001082FE01EE5AFF4F1082FE01ED5AFF4FEE
:1005C0003083FE01EC5AFF4F1082FE01EB5AFF4FC1
:1005D0001082FE01EA5AFF4F2083FE01E95AFF4FC5
:1005E0001082FE01E85AFF4F1082FE01E75AFF4FCA
:1005F0009083FE01E65AFF4F1082FE01E55AFF4F3D
:100600001082FE01E45AFF4F4083FE01E35AFF4F80
:10061000108299831A821B822C831D821E823F8343
:10062000188619863A871B861C862D871E861F868C
:10063000988B198A1A8A1B8A1C8A9D8B1E8A1F8A8C
:10064000288F198E1A8E3B8F1C8E1D8E3E8F1F8E0B
:1006500018A229A31AA21BA29CA31DA29EA31FA29B
:1006600018A629A71AA61BA63CA71DA61EA63FA72B
:1006700018AA19AA2AAB1BAA1CAA9DAB1EAA609194
:100680000001262F30E0C901880F991FDC01AA0F55
:10069000BB1FAA0FBB1FAA0FBB1FA81BB90BAF52D2
:1006A000BC4F8DE011968C931197F901EE0FFF1F4F
:1006B000EE0FFF1FEE0FFF1FE21BF30BEE0FFF1FEE
:1006C000ED52FC4FCE01C79691838083A12CB12CB3
:1006D00031E2C32ED12C1496AD92BD92CD92DC9214
:1006E000179788E493E019969C938E93189700EFE0
:1006F00010E01B961C930E931A97992493949C9246
:100700006F5F462F50E0CA01880F991F9C01220F8E
:10071000331F220F331F220F331F281B390B2F5279
:100720003C4F76E0F9017183FA01EE0FFF1FEE0FE7
:10073000FF1FEE0FFF1FE41BF50BEE0FFF1FED5227
:10074000FC4FCE0143969183808380E090E0ABE044
:10075000B0E0F90184839583A683B78388E790E0AE
:100760009187808733E3E32E31E0F32EF386E28630
:1007700010826F5F462F50E0CA01880F991F9C01BD
:10078000220F331F220F331F220F331F281B390B59
:100790002F523C4FF9017183FA01EE0FFF1FEE0F4C
:1007A000FF1FEE0FFF1FE41BF50BEE0FFF1FED52B7
:1007B000FC4FCE0101969183808380E090E0A1E020
:1007C000B0E0F90184839583A683B78380E990E044
:1007D00091878087F386E28690826F5F462F50E094
:1007E000CA01880F991F9C01220F331F220F331F4C
:1007F000220F331F281B390B2F523C4FF9017183F5
:10080000FA01EE0FFF1FEE0FFF1FEE0FFF1FE41B9D
:10081000F50BEE0FFF1FED52FC4FCE018596918335
:10082000808380E090E0A6E1B0E0F90184839583C5
:10083000A683B7838CE390E0918780871387028734
:1008400090826F5F262F30E0C901880F991FDC016D
:10085000AA0FBB1FAA0FBB1FAA0FBB1FA81BB90B58
:10086000AF52BC4F11969C921197F901EE0FFF1FEA
:10087000EE0FFF1FEE0FFF1FE21BF30BEE0FFF1F2C
:10088000ED52FC4FCE01CA96918380831496AD92AF
:10089000BD92CD92DC92179782E190E019969C93DD
:1008A0008E9318971B961C930E931A979C926F5FCA
:1008B0006093000118E1E12E10E46EC000E0802F8B
:1008C0000E948A0181E091E063E040E050E00E94F4
:1008D000AC01802F0E948A0181E091E063E041E059
:1008E00050E00E94AC01802F0E948A0181E091E0DB
:1008F00063E042E050E00E94AC01802F0E948A0138
:1009000081E091E063E043E050E00E94AC01802F81
:100910000E948A0181E091E063E044E050E00E949F
:10092000AC01802F0E948A0181E091E063E045E004
:1009300050E00E94AC01802F0E948A0181E091E08A
:1009400063E046E050E00E94AC01802F0E948A01E3
:1009500081E091E063E047E050E00E94AC0181E07B
:1009600091E060EF70E0AC012AEE30E00E9475008B
:10097000379916C06FEF70E081E091E040ED52E0F2
:100980000E94F904499906C0E09201011093020106
:1009900010920301379B07C0629B90CF05E08FCF79
:1009A00068E070E0E9CF1093CE031092CF0310936C
:1009B000D003F2CF629FD001739FF001829FE00DC0
:1009C000F11D649FE00DF11D929FF00D839FF00DCE
:1009D000749FF00D659FF00D9927729FB00DE11D7A
:1009E000F91F639FB00DE11DF91FBD01CF01112457
:1009F0000895DC0101C06D9341505040E0F7089527
:040A0000F894FFCF98
:00000001FF
