:100000000C9456000C9473000C9473000C947300C1
:100010000C9473000C9473000C9473000C94730094
:100020000C9473000C9473000C9473000C94730084
:100030000C9473000C9473000C9473000C94730074
:100040000C9473000C9473000C9473000C94730064
:100050000C9473000C9473000C9473000C94730054
:100060000C9473000C9473000C9473000C94730044
:100070000C9473000C9473000C9473000C94730034
:100080000C9473000C9473000C9473000C94730024
:100090000C9473000C9473000C9473000C94730014
:1000A0000C9473000C9473000C94730011241FBE05
:1000B000CFEFDAE0DEBFCDBF11E0A0E0B1E0E2E0DB
:1000C000FCE002C005900D92A030B107D9F714E012
:1000D000A0E0B1E001C01D92AE3FB107E1F70E9480
:1000E00081020C94FF050C940000EF92FF920F9395
:1000F0001F93CF93DF938C017A01FB01EE0FFF1F5B
:10010000E60FF71FC901880F991F820F931FBC01CB
:10011000AC018E179F070CF4AF0157FD5AC09C012C
:10012000241B350B83E0B2E0A1E01E161F06ACF5E0
:10013000E80159918E01161617069CF5E7014991C1
:100140007E0190E010C047FD2EC081BB81BB81BB0A
:1001500081BB81BB11BA11BA11BA11BA9F5F983035
:1001600099F0550F440F57FFEECF47FD27C081BBD5
:1001700081BB81BB81BB81BBA1BBA1BBA1BBA1BB1F
:1001800011BA9F5F983069F731976217730709F1C9
:10019000615070401E161F065CF250E016161706DE
:1001A0006CF240E0CECF81BB81BB81BB81BB81BB08
:1001B000B1BBB1BBB1BBB1BB11BAD0CF81BB81BBAD
:1001C00081BB81BB81BB81BB81BB81BB81BB11BAC0
:1001D000C5CFDF91CF911F910F91FF90EF900895C0
:1001E0000F931F93CF93DF938C01462F499B35C00C
:1001F000FC01C185D285BE01882777FD8095982FA7
:1002000021E030E002C0220F331F4A95E2F7442775
:1002100037FD4095542F0E94D9059B01AC01F80190
:1002200085819681A781B085280F391F4A1F5B1FE2
:100230002583368347835087D7FD17C02050304031
:10024000404F50402CF0F80115821682178210861C
:10025000DF91CF911F910F910895FC0181859285C7
:10026000CC27DD27C81BD90BC6CF57FFF1CF80E0C5
:1002700090E0A0EFB0E085839683A783B087E8CFB6
:10028000EF92FF920F931F93CF93DF93EC01462FD2
:10029000499B47C0E984FA848701B801882777FD24
:1002A0008095982F21E030E002C0220F331F4A953D
:1002B000E2F7442737FD4095542F0E94D905AB0142
:1002C000BC018D819E81AF81B885480F591F6A1F7F
:1002D0007B1F4D835E836F83788717FD29C029813B
:1002E00080EF90E0821B9109AA2797FDA095BA2F75
:1002F000DC019927882784179507A607B70754F4C8
:100300008D839E83AF83B887882799278E199F098D
:100310009A878987DF91CF911F910F91FF90EF907E
:100320000895E984FA84002711270E191F09B5CF13
:1003300077FFF0CF1D821E821F821886882799279B
:100340008E199F099A878987E5CFFF920F931F9394
:10035000082F809100018823B1F010E0FFE0FF2E0C
:100360001F9DF0011124EF52FC4F23853485211588
:10037000310531F0CF01602FF9010995809100011D
:100380001F5F181768F31F910F91FF9008952F9228
:100390003F925F926F927F928F929F92AF92BF92A5
:1003A000CF92DF92EF92FF920F931F93CF93DF9341
:1003B0001C01C62EB0900001BB2009F490C0BA0108
:1003C000882777FD8095982F20E030E041E050E0CD
:1003D0000C2C04C055954795379527950A94D2F76C
:1003E0000E94D9053B01882477FC8094982C8101D8
:1003F00000531D4FAA24AFE05A2EA59C7001112472
:1004000081ED93E0E80EF91ED70115962D913D91EF
:100410004D915C91189713966D917C91149711965C
:10042000DC90DD2009F457C0260D371D481D591DED
:100430009A01552737FD5095452FDA01C901880FDC
:10044000991FAA1FBB1F820F931FA41FB51FF10185
:10045000E80FF91FE7014A814423C1F1DB0121E0E4
:1004600030818D91E215F305F0F0E017F107D8F433
:1004700090E00C2C02C0959587950A94E2F7830FC3
:10048000911D8F3F910519F010F08FEF90E081934F
:10049000E017F10761F0233089F02F5F30818D91F3
:1004A000E215F30510F73196E017F107A1F7E70120
:1004B000888180FFF0CFF101233079F76D5F7F4FA6
:1004C000415051F263507040442341F6DA9409F0F0
:1004D000C1CFB0900001A394AB1408F48ECFDF918C
:1004E000CF911F910F91FF90EF90DF90CF90BF9031
:1004F000AF909F908F907F906F905F903F902F90E4
:1005000008952F923F924F925F926F927F928F92B7
:100510009F92AF92BF92CF92DF92EF92FF920F9392
:100520001F93DF93CF93CDB7DEB7C55DD0400FB635
:10053000F894DEBF0FBECDBF1092D8001092DA0043
:100540001092E2001092F00028985D986A98729AD2
:100550005198599A3F98479A559A219A80B3836047
:1005600080BB06E7E02EF12CEC0EFD1EF7012FEF0D
:1005700030E0A701485E5F4F10821182C901969555
:100580008795969587959695879582833396215082
:100590003F4FE417F50781F74FE350E02FE230E0DB
:1005A000AFEFB701605D7F4FCA019695879596952D
:1005B0008795969587958083C90196958795969599
:1005C0008795969587958183A2833396415C5F4F8B
:1005D000215D3F4FE617F70739F748EF51E028E76D
:1005E00031E0BE0162547F4FAFEFCA019695879507
:1005F00096958795969587958083C9019695879559
:1006000096958795969587958183A28333964F53C8
:1006100050402F523040E617F70739F728EF37E000
:10062000AE014A525F4F10821182C901969587959B
:100630009695879596958795828333962F5F304060
:10064000E417F50781F7AE01415B5F4FFA011082B5
:1006500064E061831282138220E124831582168272
:1006600030E43783108611869FEF928713867FE3ED
:10067000748795871686A1E9A787908B218B8FEBCE
:10068000828B938B8FE7848BA58B968B278B708FB8
:10069000918F128E138E948F158E168E378F10A217
:1006A00011A222A313A214A265A316A229831A825F
:1006B0001B823C831D821E829F83188619869A871F
:1006C0001B861C863D871E861F86288B198A1A8AE0
:1006D0001B8A1C8A2D8B1E8A1F8A388F198E1A8EB0
:1006E0009B8F1C8E1D8E9E8F1F8E18A239A31AA25F
:1006F0001BA22CA31DA22EA31FA218A639A71AA6BF
:100700001BA69CA71DA61EA69FA718AA19AA3AABAE
:100710001BAA1CAA2DAB1EAA86E18FAB10E218AF54
:1007200019AE66E26AAF3BAF1CAE70E57DAFB0E8D4
:10073000BEAFE8E07E2E7FAEFE01E05CFF4FA083FF
:10074000FE01EF5BFF4F9083FE01EE5BFF4F2083C6
:10075000FE01ED5BFF4FA083FE01EC5BFF4F90833A
:10076000FE01EB5BFF4F2083FE01EA5BFF4F7083CE
:10077000FE01E95BFF4FB083FE01E85BFF4F708233
:10078000FE01E75BFF4F6083FE01E65BFF4F3083B6
:10079000FE01E55BFF4F1082FE01E45BFF4F8083AB
:1007A000FE01E35BFF4F1083FE01E25BFF4F10820F
:1007B00060910001262F30E0C901880F991F820F38
:1007C000931FFC01EE0FFF1FEE0FFF1FE80FF91F35
:1007D000EF52FC4F118383E08283F482E382A12CE9
:1007E000B12C8BE0C82ED12CA582B682C782D086D0
:1007F00081E590E09287818700EF802E00E0902EC7
:100800009486838671E070836F5F262F30E0C90184
:10081000880F991F820F931FFC01EE0FFF1FEE0F31
:10082000FF1FE80FF91FEF52FC4F11837283F48210
:10083000E38280E090E0A7E3B0E085839683A7831E
:10084000B0878FE690E09287818794868386708355
:100850006F5F262F30E0C901880F991F820F931F09
:10086000FC01EE0FFF1FEE0FFF1FE80FF91FEF5205
:10087000FC4F11837283F482E382A582B682C78221
:10088000D08698E7492E512C5286418680E4282E46
:1008900081E0382E3486238610826F5F262F30E069
:1008A000C901880F991F820F931FFC01EE0FFF1FD4
:1008B000EE0FFF1FE80FF91FEF52FC4FB6E06B2E53
:1008C0006182728383E190E08C0F9D1F9483838308
:1008D000E12CF12CAFE60A2F112DE582F682078379
:1008E000108788E092E09287818794868386708360
:1008F0006F5F262F30E0C901880F991F820F931F69
:10090000FC01EE0FFF1FEE0FFF1FE80FF91FEF5264
:10091000FC4F618282E0828381E090E08C0F9D1F1A
:1009200094838383E582F6820783108787E390E0D0
:10093000928781879486838670836F5F262F30E04D
:10094000C901880F991F820F931FFC01EE0FFF1F33
:10095000EE0FFF1FE80FF91FEF52FC4F71827283F9
:10096000CE01C7969483838380E090E0A3EDB0E04E
:1009700085839683A783B0878EE190E092878187F5
:100980009486838670836F5F262F30E0C901880FBD
:10099000991F820F931FFC01EE0FFF1FEE0FFF1F29
:1009A000E80FF91FEF52FC4F6182728383E190E000
:1009B0008C0F9D1F94838383A582B682C782D086C5
:1009C000528641863486238610826F5F262F30E060
:1009D000C901880F991F820F931FFC01EE0FFF1FA3
:1009E000EE0FFF1FE80FF91FEF52FC4F6182728379
:1009F00081E090E08C0F9D1F9483838380E090E0E2
:100A0000A1E0B0E085839683A783B08780E990E07A
:100A1000928781873486238670836F5F262F30E02C
:100A2000C901880F991F820F931FFC01EE0FFF1F52
:100A3000EE0FFF1FE80FF91FEF52FC4F6182728328
:100A4000CE0185969483838380E090E0A6E1B0E0B8
:100A500085839683A783B08788E190E0928781871A
:100A60009486838670836F5F262F30E0C901880FDC
:100A7000991F820F931FFC01EE0FFF1FEE0FFF1F48
:100A8000E80FF91FEF52FC4F718372834D5F5F4F88
:100A90005483438380E090E0A1E2B0E085839683B5
:100AA000A783B08782E190E09287818794868386CE
:100AB00070836F5F6093000100E01FE0E12E65C06E
:100AC00010E0812F0E94A50181E091E063E040E009
:100AD00050E00E94C701812F0E94A50181E091E0B2
:100AE00063E041E050E00E94C701812F0E94A50110
:100AF00081E091E063E042E050E00E94C701812F75
:100B00000E94A50181E091E063E043E050E00E9493
:100B1000C701812F0E94A50181E091E063E044E0DC
:100B200050E00E94C701812F0E94A50181E091E061
:100B300063E045E050E00E94C701812F0E94A501BB
:100B400081E091E063E046E050E00E94C701812F20
:100B50000E94A50181E091E063E047E050E00E943F
:100B6000C70181E091E060EF70E0AC012AEE30E077
:100B70000E94750037990DC00FEF602F70E081E083
:100B800091E040ED52E00E94F805629B99CF16E09B
:100B900098CF0E9DC0011124929582958F70892760
:100BA0009F708927082F882341F701E061E070E0FA
:100BB000E6CF629FD001739FF001829FE00DF11D8F
:100BC000649FE00DF11D929FF00D839FF00D749FC7
:100BD000F00D659FF00D9927729FB00DE11DF91F73
:100BE000639FB00DE11DF91FBD01CF0111240895D0
:100BF000DC0101C06D9341505040E0F70895F89436
:020C0000FFCF24
:00000001FF
